:10000000000001208F0000007D0000004100000082
:100010007F0000008100000083000000000000005D
:10002000000000000000000000000000850000004B
:100030008700000000000000890000008B00000025
:1000400008490A68002AFED41EF0040F0CBFEFF323
:100050000880EFF3098042F000420A6081690231B2
:08006000816170472CED00E006
:10006800034C206804348047FBE700F00BF8FEE7F8
:0400780098000000EC
:02007C00FEE79D
:02007E00FEE79B
:02008000FEE799
:02008200FEE797
:02008400FEE795
:02008600FEE793
:02008800FEE791
:02008A00FEE78F
:02008C007047BB
:08008E00AFF30080FFF7E9FF6A
:0400980073000000F1
:040000030000008F6A
:00000001FF
